{
  "_format": "hh-sol-artifact-1",
  "contractName": "ArithmeticOperations",
  "sourceName": "contracts/ArithmeticOperations.sol",
  "abi": [
    {
      "inputs": [
        {
          "internalType": "uint256",
          "name": "a",
          "type": "uint256"
        },
        {
          "internalType": "uint256",
          "name": "b",
          "type": "uint256"
        }
      ],
      "name": "add",
      "outputs": [
        {
          "internalType": "uint256",
          "name": "",
          "type": "uint256"
        }
      ],
      "stateMutability": "pure",
      "type": "function"
    },
    {
      "inputs": [
        {
          "internalType": "uint256",
          "name": "a",
          "type": "uint256"
        },
        {
          "internalType": "uint256",
          "name": "b",
          "type": "uint256"
        }
      ],
      "name": "divide",
      "outputs": [
        {
          "internalType": "uint256",
          "name": "",
          "type": "uint256"
        }
      ],
      "stateMutability": "pure",
      "type": "function"
    },
    {
      "inputs": [
        {
          "internalType": "uint256",
          "name": "a",
          "type": "uint256"
        },
        {
          "internalType": "uint256",
          "name": "b",
          "type": "uint256"
        }
      ],
      "name": "multiply",
      "outputs": [
        {
          "internalType": "uint256",
          "name": "",
          "type": "uint256"
        }
      ],
      "stateMutability": "pure",
      "type": "function"
    },
    {
      "inputs": [
        {
          "internalType": "uint256",
          "name": "a",
          "type": "uint256"
        },
        {
          "internalType": "uint256",
          "name": "b",
          "type": "uint256"
        }
      ],
      "name": "subtract",
      "outputs": [
        {
          "internalType": "uint256",
          "name": "",
          "type": "uint256"
        }
      ],
      "stateMutability": "pure",
      "type": "function"
    }
  ],
  "bytecode": "0x608060405234801561001057600080fd5b50610278806100206000396000f3fe608060405234801561001057600080fd5b506004361061004c5760003560e01c8063165c4a16146100515780633ef5e44514610076578063771602f714610089578063f88e9fbf1461009c575b600080fd5b61006461005f36600461019a565b6100af565b60405190815260200160405180910390f35b61006461008436600461019a565b6100c2565b61006461009736600461019a565b610139565b6100646100aa36600461019a565b610145565b60006100bb82846101d2565b9392505050565b60008183101561012f5760405162461bcd60e51b815260206004820152602d60248201527f5375627472616374696f6e206572726f723a20526573756c742063616e6e6f7460448201526c103132903732b3b0ba34bb329760991b60648201526084015b60405180910390fd5b6100bb82846101f1565b60006100bb8284610208565b60008082116101905760405162461bcd60e51b81526020600482015260176024820152762234bb34b9b4b7b710313c903d32b9379032b93937b91760491b6044820152606401610126565b6100bb8284610220565b600080604083850312156101ad57600080fd5b50508035926020909101359150565b634e487b7160e01b600052601160045260246000fd5b60008160001904831182151516156101ec576101ec6101bc565b500290565b600082821015610203576102036101bc565b500390565b6000821982111561021b5761021b6101bc565b500190565b60008261023d57634e487b7160e01b600052601260045260246000fd5b50049056fea2646970667358221220731afe95c33a617965a71bfd4350fa159dd5a993f8e683f74424ddec9a73fdf164736f6c634300080f0033",
  "linkReferences": {},
  "deployedLinkReferences": {}
}